{
  "_format": "hh-sol-artifact-1",
  "contractName": "F1FantacyTeam",
  "sourceName": "contracts/F1FantacyTeam.sol",
  "abi": [
    {
      "inputs": [
        {
          "internalType": "address",
          "name": "_oracle",
          "type": "address"
        },
        {
          "internalType": "bytes32",
          "name": "_jobId",
          "type": "bytes32"
        },
        {
          "internalType": "uint256",
          "name": "_fee",
          "type": "uint256"
        },
        {
          "internalType": "address",
          "name": "_link",
          "type": "address"
        }
      ],
      "stateMutability": "nonpayable",
      "type": "constructor"
    },
    {
      "inputs": [],
      "name": "F1FantacyTeam__InSufficientFund",
      "type": "error"
    },
    {
      "inputs": [],
      "name": "F1FantacyTeam__InvalidTeam",
      "type": "error"
    },
    {
      "inputs": [],
      "name": "F1FantacyTeam__PrizeDistributionFailed",
      "type": "error"
    },
    {
      "inputs": [],
      "name": "F1FantacyTeam__TimelimitExceeded",
      "type": "error"
    },
    {
      "anonymous": false,
      "inputs": [
        {
          "indexed": true,
          "internalType": "bytes32",
          "name": "id",
          "type": "bytes32"
        }
      ],
      "name": "ChainlinkCancelled",
      "type": "event"
    },
    {
      "anonymous": false,
      "inputs": [
        {
          "indexed": true,
          "internalType": "bytes32",
          "name": "id",
          "type": "bytes32"
        }
      ],
      "name": "ChainlinkFulfilled",
      "type": "event"
    },
    {
      "anonymous": false,
      "inputs": [
        {
          "indexed": true,
          "internalType": "bytes32",
          "name": "id",
          "type": "bytes32"
        }
      ],
      "name": "ChainlinkRequested",
      "type": "event"
    },
    {
      "anonymous": false,
      "inputs": [
        {
          "indexed": false,
          "internalType": "uint256",
          "name": "volume",
          "type": "uint256"
        }
      ],
      "name": "DataFullfilled",
      "type": "event"
    },
    {
      "anonymous": false,
      "inputs": [
        {
          "indexed": false,
          "internalType": "address",
          "name": "player",
          "type": "address"
        },
        {
          "components": [
            {
              "internalType": "string",
              "name": "name",
              "type": "string"
            },
            {
              "internalType": "address",
              "name": "player",
              "type": "address"
            },
            {
              "internalType": "uint8",
              "name": "d1",
              "type": "uint8"
            },
            {
              "internalType": "uint8",
              "name": "d2",
              "type": "uint8"
            },
            {
              "internalType": "uint8",
              "name": "d3",
              "type": "uint8"
            },
            {
              "internalType": "uint8",
              "name": "d4",
              "type": "uint8"
            },
            {
              "internalType": "uint8",
              "name": "d5",
              "type": "uint8"
            },
            {
              "internalType": "string",
              "name": "team",
              "type": "string"
            },
            {
              "internalType": "uint8",
              "name": "captain",
              "type": "uint8"
            }
          ],
          "indexed": false,
          "internalType": "struct F1FantacyTeam.FantacyTeam",
          "name": "fantacyTeam",
          "type": "tuple"
        }
      ],
      "name": "PlayerParticipated",
      "type": "event"
    },
    {
      "anonymous": false,
      "inputs": [
        {
          "components": [
            {
              "internalType": "string",
              "name": "name",
              "type": "string"
            },
            {
              "internalType": "address",
              "name": "player",
              "type": "address"
            },
            {
              "internalType": "uint8",
              "name": "d1",
              "type": "uint8"
            },
            {
              "internalType": "uint8",
              "name": "d2",
              "type": "uint8"
            },
            {
              "internalType": "uint8",
              "name": "d3",
              "type": "uint8"
            },
            {
              "internalType": "uint8",
              "name": "d4",
              "type": "uint8"
            },
            {
              "internalType": "uint8",
              "name": "d5",
              "type": "uint8"
            },
            {
              "internalType": "string",
              "name": "team",
              "type": "string"
            },
            {
              "internalType": "uint8",
              "name": "captain",
              "type": "uint8"
            }
          ],
          "indexed": false,
          "internalType": "struct F1FantacyTeam.FantacyTeam",
          "name": "winner1",
          "type": "tuple"
        },
        {
          "components": [
            {
              "internalType": "string",
              "name": "name",
              "type": "string"
            },
            {
              "internalType": "address",
              "name": "player",
              "type": "address"
            },
            {
              "internalType": "uint8",
              "name": "d1",
              "type": "uint8"
            },
            {
              "internalType": "uint8",
              "name": "d2",
              "type": "uint8"
            },
            {
              "internalType": "uint8",
              "name": "d3",
              "type": "uint8"
            },
            {
              "internalType": "uint8",
              "name": "d4",
              "type": "uint8"
            },
            {
              "internalType": "uint8",
              "name": "d5",
              "type": "uint8"
            },
            {
              "internalType": "string",
              "name": "team",
              "type": "string"
            },
            {
              "internalType": "uint8",
              "name": "captain",
              "type": "uint8"
            }
          ],
          "indexed": false,
          "internalType": "struct F1FantacyTeam.FantacyTeam",
          "name": "winner2",
          "type": "tuple"
        },
        {
          "components": [
            {
              "internalType": "string",
              "name": "name",
              "type": "string"
            },
            {
              "internalType": "address",
              "name": "player",
              "type": "address"
            },
            {
              "internalType": "uint8",
              "name": "d1",
              "type": "uint8"
            },
            {
              "internalType": "uint8",
              "name": "d2",
              "type": "uint8"
            },
            {
              "internalType": "uint8",
              "name": "d3",
              "type": "uint8"
            },
            {
              "internalType": "uint8",
              "name": "d4",
              "type": "uint8"
            },
            {
              "internalType": "uint8",
              "name": "d5",
              "type": "uint8"
            },
            {
              "internalType": "string",
              "name": "team",
              "type": "string"
            },
            {
              "internalType": "uint8",
              "name": "captain",
              "type": "uint8"
            }
          ],
          "indexed": false,
          "internalType": "struct F1FantacyTeam.FantacyTeam",
          "name": "winner3",
          "type": "tuple"
        },
        {
          "indexed": false,
          "internalType": "uint256",
          "name": "amount1",
          "type": "uint256"
        },
        {
          "indexed": false,
          "internalType": "uint256",
          "name": "amount2",
          "type": "uint256"
        },
        {
          "indexed": false,
          "internalType": "uint256",
          "name": "amount3",
          "type": "uint256"
        }
      ],
      "name": "PrizeDistributed",
      "type": "event"
    },
    {
      "anonymous": false,
      "inputs": [
        {
          "components": [
            {
              "internalType": "string",
              "name": "name",
              "type": "string"
            },
            {
              "internalType": "address",
              "name": "player",
              "type": "address"
            },
            {
              "internalType": "uint8",
              "name": "d1",
              "type": "uint8"
            },
            {
              "internalType": "uint8",
              "name": "d2",
              "type": "uint8"
            },
            {
              "internalType": "uint8",
              "name": "d3",
              "type": "uint8"
            },
            {
              "internalType": "uint8",
              "name": "d4",
              "type": "uint8"
            },
            {
              "internalType": "uint8",
              "name": "d5",
              "type": "uint8"
            },
            {
              "internalType": "string",
              "name": "team",
              "type": "string"
            },
            {
              "internalType": "uint8",
              "name": "captain",
              "type": "uint8"
            }
          ],
          "indexed": false,
          "internalType": "struct F1FantacyTeam.FantacyTeam",
          "name": "winner1",
          "type": "tuple"
        },
        {
          "components": [
            {
              "internalType": "string",
              "name": "name",
              "type": "string"
            },
            {
              "internalType": "address",
              "name": "player",
              "type": "address"
            },
            {
              "internalType": "uint8",
              "name": "d1",
              "type": "uint8"
            },
            {
              "internalType": "uint8",
              "name": "d2",
              "type": "uint8"
            },
            {
              "internalType": "uint8",
              "name": "d3",
              "type": "uint8"
            },
            {
              "internalType": "uint8",
              "name": "d4",
              "type": "uint8"
            },
            {
              "internalType": "uint8",
              "name": "d5",
              "type": "uint8"
            },
            {
              "internalType": "string",
              "name": "team",
              "type": "string"
            },
            {
              "internalType": "uint8",
              "name": "captain",
              "type": "uint8"
            }
          ],
          "indexed": false,
          "internalType": "struct F1FantacyTeam.FantacyTeam",
          "name": "winner2",
          "type": "tuple"
        },
        {
          "components": [
            {
              "internalType": "string",
              "name": "name",
              "type": "string"
            },
            {
              "internalType": "address",
              "name": "player",
              "type": "address"
            },
            {
              "internalType": "uint8",
              "name": "d1",
              "type": "uint8"
            },
            {
              "internalType": "uint8",
              "name": "d2",
              "type": "uint8"
            },
            {
              "internalType": "uint8",
              "name": "d3",
              "type": "uint8"
            },
            {
              "internalType": "uint8",
              "name": "d4",
              "type": "uint8"
            },
            {
              "internalType": "uint8",
              "name": "d5",
              "type": "uint8"
            },
            {
              "internalType": "string",
              "name": "team",
              "type": "string"
            },
            {
              "internalType": "uint8",
              "name": "captain",
              "type": "uint8"
            }
          ],
          "indexed": false,
          "internalType": "struct F1FantacyTeam.FantacyTeam",
          "name": "winner3",
          "type": "tuple"
        }
      ],
      "name": "winnerAnnouncement",
      "type": "event"
    },
    {
      "inputs": [],
      "name": "JOININGFEES",
      "outputs": [
        {
          "internalType": "uint256",
          "name": "",
          "type": "uint256"
        }
      ],
      "stateMutability": "view",
      "type": "function"
    },
    {
      "inputs": [],
      "name": "TOTALPOINTS",
      "outputs": [
        {
          "internalType": "uint32",
          "name": "",
          "type": "uint32"
        }
      ],
      "stateMutability": "view",
      "type": "function"
    },
    {
      "inputs": [],
      "name": "_distributePrizes",
      "outputs": [],
      "stateMutability": "nonpayable",
      "type": "function"
    },
    {
      "inputs": [
        {
          "internalType": "string",
          "name": "",
          "type": "string"
        }
      ],
      "name": "constructor2cost",
      "outputs": [
        {
          "internalType": "uint32",
          "name": "",
          "type": "uint32"
        }
      ],
      "stateMutability": "view",
      "type": "function"
    },
    {
      "inputs": [],
      "name": "fee",
      "outputs": [
        {
          "internalType": "uint256",
          "name": "",
          "type": "uint256"
        }
      ],
      "stateMutability": "view",
      "type": "function"
    },
    {
      "inputs": [],
      "name": "first",
      "outputs": [
        {
          "internalType": "address",
          "name": "",
          "type": "address"
        }
      ],
      "stateMutability": "view",
      "type": "function"
    },
    {
      "inputs": [
        {
          "internalType": "bytes32",
          "name": "_requestId",
          "type": "bytes32"
        },
        {
          "internalType": "address",
          "name": "_first",
          "type": "address"
        },
        {
          "internalType": "address",
          "name": "_second",
          "type": "address"
        },
        {
          "internalType": "address",
          "name": "_third",
          "type": "address"
        },
        {
          "internalType": "bool",
          "name": "status",
          "type": "bool"
        }
      ],
      "name": "fulfill",
      "outputs": [],
      "stateMutability": "nonpayable",
      "type": "function"
    },
    {
      "inputs": [],
      "name": "getBalance",
      "outputs": [
        {
          "internalType": "uint256",
          "name": "",
          "type": "uint256"
        }
      ],
      "stateMutability": "view",
      "type": "function"
    },
    {
      "inputs": [],
      "name": "getParticipants",
      "outputs": [
        {
          "components": [
            {
              "internalType": "string",
              "name": "name",
              "type": "string"
            },
            {
              "internalType": "address",
              "name": "player",
              "type": "address"
            },
            {
              "internalType": "uint8",
              "name": "d1",
              "type": "uint8"
            },
            {
              "internalType": "uint8",
              "name": "d2",
              "type": "uint8"
            },
            {
              "internalType": "uint8",
              "name": "d3",
              "type": "uint8"
            },
            {
              "internalType": "uint8",
              "name": "d4",
              "type": "uint8"
            },
            {
              "internalType": "uint8",
              "name": "d5",
              "type": "uint8"
            },
            {
              "internalType": "string",
              "name": "team",
              "type": "string"
            },
            {
              "internalType": "uint8",
              "name": "captain",
              "type": "uint8"
            }
          ],
          "internalType": "struct F1FantacyTeam.FantacyTeam[]",
          "name": "",
          "type": "tuple[]"
        }
      ],
      "stateMutability": "view",
      "type": "function"
    },
    {
      "inputs": [
        {
          "internalType": "address",
          "name": "player",
          "type": "address"
        }
      ],
      "name": "getTeam",
      "outputs": [
        {
          "components": [
            {
              "internalType": "string",
              "name": "name",
              "type": "string"
            },
            {
              "internalType": "address",
              "name": "player",
              "type": "address"
            },
            {
              "internalType": "uint8",
              "name": "d1",
              "type": "uint8"
            },
            {
              "internalType": "uint8",
              "name": "d2",
              "type": "uint8"
            },
            {
              "internalType": "uint8",
              "name": "d3",
              "type": "uint8"
            },
            {
              "internalType": "uint8",
              "name": "d4",
              "type": "uint8"
            },
            {
              "internalType": "uint8",
              "name": "d5",
              "type": "uint8"
            },
            {
              "internalType": "string",
              "name": "team",
              "type": "string"
            },
            {
              "internalType": "uint8",
              "name": "captain",
              "type": "uint8"
            }
          ],
          "internalType": "struct F1FantacyTeam.FantacyTeam",
          "name": "",
          "type": "tuple"
        }
      ],
      "stateMutability": "view",
      "type": "function"
    },
    {
      "inputs": [],
      "name": "getTeams",
      "outputs": [
        {
          "components": [
            {
              "internalType": "string",
              "name": "name",
              "type": "string"
            },
            {
              "internalType": "address",
              "name": "player",
              "type": "address"
            },
            {
              "internalType": "uint8",
              "name": "d1",
              "type": "uint8"
            },
            {
              "internalType": "uint8",
              "name": "d2",
              "type": "uint8"
            },
            {
              "internalType": "uint8",
              "name": "d3",
              "type": "uint8"
            },
            {
              "internalType": "uint8",
              "name": "d4",
              "type": "uint8"
            },
            {
              "internalType": "uint8",
              "name": "d5",
              "type": "uint8"
            },
            {
              "internalType": "string",
              "name": "team",
              "type": "string"
            },
            {
              "internalType": "uint8",
              "name": "captain",
              "type": "uint8"
            }
          ],
          "internalType": "struct F1FantacyTeam.FantacyTeam[]",
          "name": "",
          "type": "tuple[]"
        }
      ],
      "stateMutability": "view",
      "type": "function"
    },
    {
      "inputs": [],
      "name": "jobId",
      "outputs": [
        {
          "internalType": "bytes32",
          "name": "",
          "type": "bytes32"
        }
      ],
      "stateMutability": "view",
      "type": "function"
    },
    {
      "inputs": [],
      "name": "oracle",
      "outputs": [
        {
          "internalType": "address",
          "name": "",
          "type": "address"
        }
      ],
      "stateMutability": "view",
      "type": "function"
    },
    {
      "inputs": [
        {
          "components": [
            {
              "internalType": "string",
              "name": "name",
              "type": "string"
            },
            {
              "internalType": "address",
              "name": "player",
              "type": "address"
            },
            {
              "internalType": "uint8",
              "name": "d1",
              "type": "uint8"
            },
            {
              "internalType": "uint8",
              "name": "d2",
              "type": "uint8"
            },
            {
              "internalType": "uint8",
              "name": "d3",
              "type": "uint8"
            },
            {
              "internalType": "uint8",
              "name": "d4",
              "type": "uint8"
            },
            {
              "internalType": "uint8",
              "name": "d5",
              "type": "uint8"
            },
            {
              "internalType": "string",
              "name": "team",
              "type": "string"
            },
            {
              "internalType": "uint8",
              "name": "captain",
              "type": "uint8"
            }
          ],
          "internalType": "struct F1FantacyTeam.FantacyTeam",
          "name": "_fantacyTeam",
          "type": "tuple"
        }
      ],
      "name": "participate",
      "outputs": [],
      "stateMutability": "payable",
      "type": "function"
    },
    {
      "inputs": [
        {
          "internalType": "address",
          "name": "",
          "type": "address"
        }
      ],
      "name": "player2Team",
      "outputs": [
        {
          "internalType": "string",
          "name": "name",
          "type": "string"
        },
        {
          "internalType": "address",
          "name": "player",
          "type": "address"
        },
        {
          "internalType": "uint8",
          "name": "d1",
          "type": "uint8"
        },
        {
          "internalType": "uint8",
          "name": "d2",
          "type": "uint8"
        },
        {
          "internalType": "uint8",
          "name": "d3",
          "type": "uint8"
        },
        {
          "internalType": "uint8",
          "name": "d4",
          "type": "uint8"
        },
        {
          "internalType": "uint8",
          "name": "d5",
          "type": "uint8"
        },
        {
          "internalType": "string",
          "name": "team",
          "type": "string"
        },
        {
          "internalType": "uint8",
          "name": "captain",
          "type": "uint8"
        }
      ],
      "stateMutability": "view",
      "type": "function"
    },
    {
      "inputs": [
        {
          "internalType": "uint8",
          "name": "",
          "type": "uint8"
        }
      ],
      "name": "player2cost",
      "outputs": [
        {
          "internalType": "uint32",
          "name": "",
          "type": "uint32"
        }
      ],
      "stateMutability": "view",
      "type": "function"
    },
    {
      "inputs": [
        {
          "internalType": "uint256",
          "name": "",
          "type": "uint256"
        }
      ],
      "name": "players",
      "outputs": [
        {
          "internalType": "address",
          "name": "",
          "type": "address"
        }
      ],
      "stateMutability": "view",
      "type": "function"
    },
    {
      "inputs": [],
      "name": "raceStartTime",
      "outputs": [
        {
          "internalType": "uint32",
          "name": "",
          "type": "uint32"
        }
      ],
      "stateMutability": "view",
      "type": "function"
    },
    {
      "inputs": [],
      "name": "requestData",
      "outputs": [
        {
          "internalType": "bytes32",
          "name": "requestId",
          "type": "bytes32"
        }
      ],
      "stateMutability": "nonpayable",
      "type": "function"
    },
    {
      "inputs": [],
      "name": "requestWinners",
      "outputs": [
        {
          "internalType": "bytes32",
          "name": "requestId",
          "type": "bytes32"
        }
      ],
      "stateMutability": "nonpayable",
      "type": "function"
    },
    {
      "inputs": [],
      "name": "second",
      "outputs": [
        {
          "internalType": "address",
          "name": "",
          "type": "address"
        }
      ],
      "stateMutability": "view",
      "type": "function"
    },
    {
      "inputs": [
        {
          "internalType": "uint256",
          "name": "",
          "type": "uint256"
        }
      ],
      "name": "teams",
      "outputs": [
        {
          "internalType": "string",
          "name": "name",
          "type": "string"
        },
        {
          "internalType": "address",
          "name": "player",
          "type": "address"
        },
        {
          "internalType": "uint8",
          "name": "d1",
          "type": "uint8"
        },
        {
          "internalType": "uint8",
          "name": "d2",
          "type": "uint8"
        },
        {
          "internalType": "uint8",
          "name": "d3",
          "type": "uint8"
        },
        {
          "internalType": "uint8",
          "name": "d4",
          "type": "uint8"
        },
        {
          "internalType": "uint8",
          "name": "d5",
          "type": "uint8"
        },
        {
          "internalType": "string",
          "name": "team",
          "type": "string"
        },
        {
          "internalType": "uint8",
          "name": "captain",
          "type": "uint8"
        }
      ],
      "stateMutability": "view",
      "type": "function"
    },
    {
      "inputs": [],
      "name": "third",
      "outputs": [
        {
          "internalType": "address",
          "name": "",
          "type": "address"
        }
      ],
      "stateMutability": "view",
      "type": "function"
    },
    {
      "inputs": [],
      "name": "winners",
      "outputs": [
        {
          "components": [
            {
              "internalType": "string",
              "name": "name",
              "type": "string"
            },
            {
              "internalType": "address",
              "name": "player",
              "type": "address"
            },
            {
              "internalType": "uint8",
              "name": "d1",
              "type": "uint8"
            },
            {
              "internalType": "uint8",
              "name": "d2",
              "type": "uint8"
            },
            {
              "internalType": "uint8",
              "name": "d3",
              "type": "uint8"
            },
            {
              "internalType": "uint8",
              "name": "d4",
              "type": "uint8"
            },
            {
              "internalType": "uint8",
              "name": "d5",
              "type": "uint8"
            },
            {
              "internalType": "string",
              "name": "team",
              "type": "string"
            },
            {
              "internalType": "uint8",
              "name": "captain",
              "type": "uint8"
            }
          ],
          "internalType": "struct F1FantacyTeam.FantacyTeam",
          "name": "winner1",
          "type": "tuple"
        },
        {
          "components": [
            {
              "internalType": "string",
              "name": "name",
              "type": "string"
            },
            {
              "internalType": "address",
              "name": "player",
              "type": "address"
            },
            {
              "internalType": "uint8",
              "name": "d1",
              "type": "uint8"
            },
            {
              "internalType": "uint8",
              "name": "d2",
              "type": "uint8"
            },
            {
              "internalType": "uint8",
              "name": "d3",
              "type": "uint8"
            },
            {
              "internalType": "uint8",
              "name": "d4",
              "type": "uint8"
            },
            {
              "internalType": "uint8",
              "name": "d5",
              "type": "uint8"
            },
            {
              "internalType": "string",
              "name": "team",
              "type": "string"
            },
            {
              "internalType": "uint8",
              "name": "captain",
              "type": "uint8"
            }
          ],
          "internalType": "struct F1FantacyTeam.FantacyTeam",
          "name": "winner2",
          "type": "tuple"
        },
        {
          "components": [
            {
              "internalType": "string",
              "name": "name",
              "type": "string"
            },
            {
              "internalType": "address",
              "name": "player",
              "type": "address"
            },
            {
              "internalType": "uint8",
              "name": "d1",
              "type": "uint8"
            },
            {
              "internalType": "uint8",
              "name": "d2",
              "type": "uint8"
            },
            {
              "internalType": "uint8",
              "name": "d3",
              "type": "uint8"
            },
            {
              "internalType": "uint8",
              "name": "d4",
              "type": "uint8"
            },
            {
              "internalType": "uint8",
              "name": "d5",
              "type": "uint8"
            },
            {
              "internalType": "string",
              "name": "team",
              "type": "string"
            },
            {
              "internalType": "uint8",
              "name": "captain",
              "type": "uint8"
            }
          ],
          "internalType": "struct F1FantacyTeam.FantacyTeam",
          "name": "winner3",
          "type": "tuple"
        }
      ],
      "stateMutability": "view",
      "type": "function"
    },
    {
      "inputs": [],
      "name": "withdrawLink",
      "outputs": [],
      "stateMutability": "nonpayable",
      "type": "function"
    }
  ],
  "bytecode": "0x61010060405260016004553480156200001757600080fd5b5060405162005f2d38038062005f2d83398181016040528101906200003d919062000b9b565b600073ffffffffffffffffffffffffffffffffffffffff168173ffffffffffffffffffffffffffffffffffffffff1614156200008957620000836200011760201b60201c565b6200009b565b6200009a81620001bf60201b60201c565b5b8373ffffffffffffffffffffffffffffffffffffffff1660808173ffffffffffffffffffffffffffffffffffffffff1660601b815250508260a081815250508160c0818152505063630a236063ffffffff1660e08163ffffffff1660e01b815250506200010d6200020360201b60201c565b5050505062000d44565b620001bd73c89bd4e1632d3a43cb03aaad5262cbe4038bc57173ffffffffffffffffffffffffffffffffffffffff166338cc48316040518163ffffffff1660e01b815260040160206040518083038186803b1580156200017657600080fd5b505afa1580156200018b573d6000803e3d6000fd5b505050506040513d601f19601f82011682018060405250810190620001b1919062000b69565b620001bf60201b60201c565b565b80600260006101000a81548173ffffffffffffffffffffffffffffffffffffffff021916908373ffffffffffffffffffffffffffffffffffffffff16021790555050565b604b60066000601760ff1660ff16815260200190815260200160002060006101000a81548163ffffffff021916908363ffffffff160217905550607e60066000600e60ff1660ff16815260200190815260200160002060006101000a81548163ffffffff021916908363ffffffff160217905550606160066000604d60ff1660ff16815260200190815260200160002060006101000a81548163ffffffff021916908363ffffffff160217905550608160066000600a60ff1660ff16815260200190815260200160002060006101000a81548163ffffffff021916908363ffffffff16021790555060bc60066000602c60ff1660ff16815260200190815260200160002060006101000a81548163ffffffff021916908363ffffffff160217905550604360066000600660ff1660ff16815260200190815260200160002060006101000a81548163ffffffff021916908363ffffffff16021790555061012d60066000601060ff1660ff16815260200190815260200160002060006101000a81548163ffffffff021916908363ffffffff160217905550603d60066000601460ff1660ff16815260200190815260200160002060006101000a81548163ffffffff021916908363ffffffff160217905550609f60066000600460ff1660ff16815260200190815260200160002060006101000a81548163ffffffff021916908363ffffffff160217905550607b60066000601f60ff1660ff16815260200190815260200160002060006101000a81548163ffffffff021916908363ffffffff16021790555060b760066000600b60ff1660ff16815260200190815260200160002060006101000a81548163ffffffff021916908363ffffffff160217905550608760066000600360ff1660ff16815260200190815260200160002060006101000a81548163ffffffff021916908363ffffffff16021790555060f460066000603f60ff1660ff16815260200190815260200160002060006101000a81548163ffffffff021916908363ffffffff16021790555060ad60066000603760ff1660ff16815260200190815260200160002060006101000a81548163ffffffff021916908363ffffffff160217905550603e60066000602f60ff1660ff16815260200190815260200160002060006101000a81548163ffffffff021916908363ffffffff160217905550605c60066000601260ff1660ff16815260200190815260200160002060006101000a81548163ffffffff021916908363ffffffff160217905550605360066000601660ff1660ff16815260200190815260200160002060006101000a81548163ffffffff021916908363ffffffff16021790555061013160066000602160ff1660ff16815260200190815260200160002060006101000a81548163ffffffff021916908363ffffffff160217905550607260066000600560ff1660ff16815260200190815260200160002060006101000a81548163ffffffff021916908363ffffffff160217905550605260066000601860ff1660ff16815260200190815260200160002060006101000a81548163ffffffff021916908363ffffffff160217905550606560076040518060400160405280600481526020017f616c666100000000000000000000000000000000000000000000000000000000815250604051620006d6919062000c44565b908152602001604051809103902060006101000a81548163ffffffff021916908363ffffffff160217905550603f60076040518060400160405280600a81526020017f616c7068617461757269000000000000000000000000000000000000000000008152506040516200074b919062000c44565b908152602001604051809103902060006101000a81548163ffffffff021916908363ffffffff160217905550608c60076040518060400160405280600681526020017f616c70696e650000000000000000000000000000000000000000000000000000815250604051620007c0919062000c44565b908152602001604051809103902060006101000a81548163ffffffff021916908363ffffffff160217905550606e60076040518060400160405280600c81526020017f6173746f6e5f6d617274696e000000000000000000000000000000000000000081525060405162000835919062000c44565b908152602001604051809103902060006101000a81548163ffffffff021916908363ffffffff16021790555061010260076040518060400160405280600781526020017f6665727261726900000000000000000000000000000000000000000000000000815250604051620008ab919062000c44565b908152602001604051809103902060006101000a81548163ffffffff021916908363ffffffff160217905550605560076040518060400160405280600481526020017f686161730000000000000000000000000000000000000000000000000000000081525060405162000920919062000c44565b908152602001604051809103902060006101000a81548163ffffffff021916908363ffffffff16021790555060af60076040518060400160405280600781526020017f6d636c6172656e0000000000000000000000000000000000000000000000000081525060405162000995919062000c44565b908152602001604051809103902060006101000a81548163ffffffff021916908363ffffffff16021790555061015160076040518060400160405280600881526020017f6d6572636564657300000000000000000000000000000000000000000000000081525060405162000a0b919062000c44565b908152602001604051809103902060006101000a81548163ffffffff021916908363ffffffff16021790555061015160076040518060400160405280600881526020017f7265645f62756c6c00000000000000000000000000000000000000000000000081525060405162000a81919062000c44565b908152602001604051809103902060006101000a81548163ffffffff021916908363ffffffff160217905550604760076040518060400160405280600881526020017f77696c6c69616d7300000000000000000000000000000000000000000000000081525060405162000af6919062000c44565b908152602001604051809103902060006101000a81548163ffffffff021916908363ffffffff160217905550565b60008151905062000b358162000cf6565b92915050565b60008151905062000b4c8162000d10565b92915050565b60008151905062000b638162000d2a565b92915050565b60006020828403121562000b825762000b8162000cf1565b5b600062000b928482850162000b24565b91505092915050565b6000806000806080858703121562000bb85762000bb762000cf1565b5b600062000bc88782880162000b24565b945050602062000bdb8782880162000b3b565b935050604062000bee8782880162000b52565b925050606062000c018782880162000b24565b91505092959194509250565b600062000c1a8262000c5d565b62000c26818562000c68565b935062000c3881856020860162000cbb565b80840191505092915050565b600062000c52828462000c0d565b915081905092915050565b600081519050919050565b600081905092915050565b600062000c808262000c91565b9050919050565b6000819050919050565b600073ffffffffffffffffffffffffffffffffffffffff82169050919050565b6000819050919050565b60005b8381101562000cdb57808201518184015260208101905062000cbe565b8381111562000ceb576000848401525b50505050565b600080fd5b62000d018162000c73565b811462000d0d57600080fd5b50565b62000d1b8162000c87565b811462000d2757600080fd5b50565b62000d358162000cb1565b811462000d4157600080fd5b50565b60805160601c60a05160c05160e05160e01c61518d62000da0600039600081816105ed01526108070152600081816111eb0152612a4d01526000818161112b015261285d01526000818161110101526111c9015261518d6000f3fe6080604052600436106101665760003560e01c806387529f0f116100d1578063b2a073611161008a578063c60c26e211610064578063c60c26e21461050b578063ddca3f4314610550578063f4ec521e1461057b578063f71d96cb146105a657610166565b8063b2a07361146104a0578063b557ffd7146104b7578063c2939d97146104e057610166565b806387529f0f1461039e57806389fcd167146103db5780638c8ab6b0146104065780638dc654a214610431578063a487bcd814610448578063a6dc67711461047557610166565b806358d51ca51161012357806358d51ca51461028a5780635a8ac02d146102c75780635aa68ac0146102f2578063606deecd1461031d5780637dc0d1d01461034857806381d0341d1461037357610166565b806312065fe01461016b578063196172f4146101965780631fa0102a146101c15780633922a12a146101fe5780633df4ddf41461021a5780633ed2b77a14610245575b600080fd5b34801561017757600080fd5b506101806105e3565b60405161018d9190614794565b60405180910390f35b3480156101a257600080fd5b506101ab6105eb565b6040516101b891906147af565b60405180910390f35b3480156101cd57600080fd5b506101e860048036038101906101e39190613d89565b61060f565b6040516101f591906147af565b60405180910390f35b61021860048036038101906102139190613ce6565b610632565b005b34801561022657600080fd5b5061022f610c11565b60405161023c91906143d5565b60405180910390f35b34801561025157600080fd5b5061026c60048036038101906102679190613d2f565b610c37565b60405161028199989796959493929190614549565b60405180910390f35b34801561029657600080fd5b506102b160048036038101906102ac9190613c9d565b610e13565b6040516102be91906147af565b60405180910390f35b3480156102d357600080fd5b506102dc610e4c565b6040516102e991906143d5565b60405180910390f35b3480156102fe57600080fd5b50610307610e72565b604051610314919061450c565b60405180910390f35b34801561032957600080fd5b506103326110fa565b60405161033f919061452e565b60405180910390f35b34801561035457600080fd5b5061035d6110ff565b60405161036a91906143d5565b60405180910390f35b34801561037f57600080fd5b50610388611123565b604051610395919061452e565b60405180910390f35b3480156103aa57600080fd5b506103c560048036038101906103c09190613bc8565b611215565b6040516103d29190614664565b60405180910390f35b3480156103e757600080fd5b506103f0611497565b6040516103fd91906147af565b60405180910390f35b34801561041257600080fd5b5061041b61149d565b6040516104289190614794565b60405180910390f35b34801561043d57600080fd5b506104466114a8565b005b34801561045457600080fd5b5061045d611618565b60405161046c93929190614686565b60405180910390f35b34801561048157600080fd5b5061048a611cc9565b60405161049791906143d5565b60405180910390f35b3480156104ac57600080fd5b506104b5611cef565b005b3480156104c357600080fd5b506104de60048036038101906104d99190613c22565b611f81565b005b3480156104ec57600080fd5b506104f561285b565b604051610502919061452e565b60405180910390f35b34801561051757600080fd5b50610532600480360381019061052d9190613bc8565b61287f565b60405161054799989796959493929190614549565b60405180910390f35b34801561055c57600080fd5b50610565612a4b565b6040516105729190614794565b60405180910390f35b34801561058757600080fd5b50610590612a6f565b60405161059d919061450c565b60405180910390f35b3480156105b257600080fd5b506105cd60048036038101906105c89190613d2f565b612cf7565b6040516105da91906143d5565b60405180910390f35b600047905090565b7f000000000000000000000000000000000000000000000000000000000000000081565b60066020528060005260406000206000915054906101000a900463ffffffff1681565b66b1a2bc2ec50000341015610673576040517f30ba70e000000000000000000000000000000000000000000000000000000000815260040160405180910390fd5b6103e863ffffffff1660078260e0015160405161069091906143a9565b908152602001604051809103902060009054906101000a900463ffffffff16600660008460c0015160ff1660ff16815260200190815260200160002060009054906101000a900463ffffffff16600660008560a0015160ff1660ff16815260200190815260200160002060009054906101000a900463ffffffff1660066000866080015160ff1660ff16815260200190815260200160002060009054906101000a900463ffffffff1660066000876060015160ff1660ff16815260200190815260200160002060009054906101000a900463ffffffff1660066000886040015160ff1660ff16815260200190815260200160002060009054906101000a900463ffffffff1661079f9190614923565b6107a99190614923565b6107b39190614923565b6107bd9190614923565b6107c79190614923565b63ffffffff161115610805576040517f8009ba0d00000000000000000000000000000000000000000000000000000000815260040160405180910390fd5b7f000000000000000000000000000000000000000000000000000000000000000063ffffffff16421115610865576040517fecd32b5c00000000000000000000000000000000000000000000000000000000815260040160405180910390fd5b600b81602001519080600181540180825580915050600190039060005260206000200160009091909190916101000a81548173ffffffffffffffffffffffffffffffffffffffff021916908373ffffffffffffffffffffffffffffffffffffffff16021790555080600d6000836020015173ffffffffffffffffffffffffffffffffffffffff1673ffffffffffffffffffffffffffffffffffffffff168152602001908152602001600020600082015181600001908051906020019061092c929190613782565b5060208201518160010160006101000a81548173ffffffffffffffffffffffffffffffffffffffff021916908373ffffffffffffffffffffffffffffffffffffffff16021790555060408201518160010160146101000a81548160ff021916908360ff16021790555060608201518160010160156101000a81548160ff021916908360ff16021790555060808201518160010160166101000a81548160ff021916908360ff16021790555060a08201518160010160176101000a81548160ff021916908360ff16021790555060c08201518160010160186101000a81548160ff021916908360ff16021790555060e0820151816002019080519060200190610a35929190613782565b506101008201518160030160006101000a81548160ff021916908360ff160217905550905050600c8190806001815401808255809150506001900390600052602060002090600402016000909190919091506000820151816000019080519060200190610aa3929190613782565b5060208201518160010160006101000a81548173ffffffffffffffffffffffffffffffffffffffff021916908373ffffffffffffffffffffffffffffffffffffffff16021790555060408201518160010160146101000a81548160ff021916908360ff16021790555060608201518160010160156101000a81548160ff021916908360ff16021790555060808201518160010160166101000a81548160ff021916908360ff16021790555060a08201518160010160176101000a81548160ff021916908360ff16021790555060c08201518160010160186101000a81548160ff021916908360ff16021790555060e0820151816002019080519060200190610bac929190613782565b506101008201518160030160006101000a81548160ff021916908360ff16021790555050507f6bc2a84354fe1abce3695d50b1854432594e002db4ddd9cba7b9a48de7142d8b816020015182604051610c069291906143f0565b60405180910390a150565b600860009054906101000a900473ffffffffffffffffffffffffffffffffffffffff1681565b600c8181548110610c4757600080fd5b9060005260206000209060040201600091509050806000018054610c6a90614cf7565b80601f0160208091040260200160405190810160405280929190818152602001828054610c9690614cf7565b8015610ce35780601f10610cb857610100808354040283529160200191610ce3565b820191906000526020600020905b815481529060010190602001808311610cc657829003601f168201915b5050505050908060010160009054906101000a900473ffffffffffffffffffffffffffffffffffffffff16908060010160149054906101000a900460ff16908060010160159054906101000a900460ff16908060010160169054906101000a900460ff16908060010160179054906101000a900460ff16908060010160189054906101000a900460ff1690806002018054610d7d90614cf7565b80601f0160208091040260200160405190810160405280929190818152602001828054610da990614cf7565b8015610df65780601f10610dcb57610100808354040283529160200191610df6565b820191906000526020600020905b815481529060010190602001808311610dd957829003601f168201915b5050505050908060030160009054906101000a900460ff16905089565b6007818051602081018201805184825260208301602085012081835280955050505050506000915054906101000a900463ffffffff1681565b600960009054906101000a900473ffffffffffffffffffffffffffffffffffffffff1681565b6060600c805480602002602001604051908101604052809291908181526020016000905b828210156110f1578382906000526020600020906004020160405180610120016040529081600082018054610eca90614cf7565b80601f0160208091040260200160405190810160405280929190818152602001828054610ef690614cf7565b8015610f435780601f10610f1857610100808354040283529160200191610f43565b820191906000526020600020905b815481529060010190602001808311610f2657829003601f168201915b505050505081526020016001820160009054906101000a900473ffffffffffffffffffffffffffffffffffffffff1673ffffffffffffffffffffffffffffffffffffffff1673ffffffffffffffffffffffffffffffffffffffff1681526020016001820160149054906101000a900460ff1660ff1660ff1681526020016001820160159054906101000a900460ff1660ff1660ff1681526020016001820160169054906101000a900460ff1660ff1660ff1681526020016001820160179054906101000a900460ff1660ff1660ff1681526020016001820160189054906101000a900460ff1660ff1660ff16815260200160028201805461104390614cf7565b80601f016020809104026020016040519081016040528092919081815260200182805461106f90614cf7565b80156110bc5780601f10611091576101008083540402835291602001916110bc565b820191906000526020600020905b81548152906001019060200180831161109f57829003601f168201915b505050505081526020016003820160009054906101000a900460ff1660ff1660ff168152505081526020019060010190610e96565b50505050905090565b600090565b7f000000000000000000000000000000000000000000000000000000000000000081565b6000806111587f00000000000000000000000000000000000000000000000000000000000000003063b557ffd760e01b612d36565b90506111c46040518060400160405280600781526020017f61646472657373000000000000000000000000000000000000000000000000008152506111b43073ffffffffffffffffffffffffffffffffffffffff166014612d67565b83612fa39092919063ffffffff16565b61120f7f0000000000000000000000000000000000000000000000000000000000000000827f0000000000000000000000000000000000000000000000000000000000000000612fd6565b91505090565b61121d613808565b600d60008373ffffffffffffffffffffffffffffffffffffffff1673ffffffffffffffffffffffffffffffffffffffff1681526020019081526020016000206040518061012001604052908160008201805461127890614cf7565b80601f01602080910402602001604051908101604052809291908181526020018280546112a490614cf7565b80156112f15780601f106112c6576101008083540402835291602001916112f1565b820191906000526020600020905b8154815290600101906020018083116112d457829003601f168201915b505050505081526020016001820160009054906101000a900473ffffffffffffffffffffffffffffffffffffffff1673ffffffffffffffffffffffffffffffffffffffff1673ffffffffffffffffffffffffffffffffffffffff1681526020016001820160149054906101000a900460ff1660ff1660ff1681526020016001820160159054906101000a900460ff1660ff1660ff1681526020016001820160169054906101000a900460ff1660ff1660ff1681526020016001820160179054906101000a900460ff1660ff1660ff1681526020016001820160189054906101000a900460ff1660ff1660ff1681526020016002820180546113f190614cf7565b80601f016020809104026020016040519081016040528092919081815260200182805461141d90614cf7565b801561146a5780601f1061143f5761010080835404028352916020019161146a565b820191906000526020600020905b81548152906001019060200180831161144d57829003601f168201915b505050505081526020016003820160009054906101000a900460ff1660ff1660ff16815250509050919050565b6103e881565b66b1a2bc2ec5000081565b60007301be23585060835e02b77ef475b0cc51aa1e070990508073ffffffffffffffffffffffffffffffffffffffff1663a9059cbb338373ffffffffffffffffffffffffffffffffffffffff166370a08231306040518263ffffffff1660e01b815260040161151791906143d5565b60206040518083038186803b15801561152f57600080fd5b505afa158015611543573d6000803e3d6000fd5b505050506040513d601f19601f820116820180604052508101906115679190613d5c565b6040518363ffffffff1660e01b8152600401611584929190614420565b602060405180830381600087803b15801561159e57600080fd5b505af11580156115b2573d6000803e3d6000fd5b505050506040513d601f19601f820116820180604052508101906115d69190613bf5565b611615576040517f08c379a000000000000000000000000000000000000000000000000000000000815260040161160c90614624565b60405180910390fd5b50565b600e806000016040518061012001604052908160008201805461163a90614cf7565b80601f016020809104026020016040519081016040528092919081815260200182805461166690614cf7565b80156116b35780601f10611688576101008083540402835291602001916116b3565b820191906000526020600020905b81548152906001019060200180831161169657829003601f168201915b505050505081526020016001820160009054906101000a900473ffffffffffffffffffffffffffffffffffffffff1673ffffffffffffffffffffffffffffffffffffffff1673ffffffffffffffffffffffffffffffffffffffff1681526020016001820160149054906101000a900460ff1660ff1660ff1681526020016001820160159054906101000a900460ff1660ff1660ff1681526020016001820160169054906101000a900460ff1660ff1660ff1681526020016001820160179054906101000a900460ff1660ff1660ff1681526020016001820160189054906101000a900460ff1660ff1660ff1681526020016002820180546117b390614cf7565b80601f01602080910402602001604051908101604052809291908181526020018280546117df90614cf7565b801561182c5780601f106118015761010080835404028352916020019161182c565b820191906000526020600020905b81548152906001019060200180831161180f57829003601f168201915b505050505081526020016003820160009054906101000a900460ff1660ff1660ff168152505090806004016040518061012001604052908160008201805461187390614cf7565b80601f016020809104026020016040519081016040528092919081815260200182805461189f90614cf7565b80156118ec5780601f106118c1576101008083540402835291602001916118ec565b820191906000526020600020905b8154815290600101906020018083116118cf57829003601f168201915b505050505081526020016001820160009054906101000a900473ffffffffffffffffffffffffffffffffffffffff1673ffffffffffffffffffffffffffffffffffffffff1673ffffffffffffffffffffffffffffffffffffffff1681526020016001820160149054906101000a900460ff1660ff1660ff1681526020016001820160159054906101000a900460ff1660ff1660ff1681526020016001820160169054906101000a900460ff1660ff1660ff1681526020016001820160179054906101000a900460ff1660ff1660ff1681526020016001820160189054906101000a900460ff1660ff1660ff1681526020016002820180546119ec90614cf7565b80601f0160208091040260200160405190810160405280929190818152602001828054611a1890614cf7565b8015611a655780601f10611a3a57610100808354040283529160200191611a65565b820191906000526020600020905b815481529060010190602001808311611a4857829003601f168201915b505050505081526020016003820160009054906101000a900460ff1660ff1660ff1681525050908060080160405180610120016040529081600082018054611aac90614cf7565b80601f0160208091040260200160405190810160405280929190818152602001828054611ad890614cf7565b8015611b255780601f10611afa57610100808354040283529160200191611b25565b820191906000526020600020905b815481529060010190602001808311611b0857829003601f168201915b505050505081526020016001820160009054906101000a900473ffffffffffffffffffffffffffffffffffffffff1673ffffffffffffffffffffffffffffffffffffffff1673ffffffffffffffffffffffffffffffffffffffff1681526020016001820160149054906101000a900460ff1660ff1660ff1681526020016001820160159054906101000a900460ff1660ff1660ff1681526020016001820160169054906101000a900460ff1660ff1660ff1681526020016001820160179054906101000a900460ff1660ff1660ff1681526020016001820160189054906101000a900460ff1660ff1660ff168152602001600282018054611c2590614cf7565b80601f0160208091040260200160405190810160405280929190818152602001828054611c5190614cf7565b8015611c9e5780601f10611c7357610100808354040283529160200191611c9e565b820191906000526020600020905b815481529060010190602001808311611c8157829003601f168201915b505050505081526020016003820160009054906101000a900460ff1660ff1660ff1681525050905083565b600a60009054906101000a900473ffffffffffffffffffffffffffffffffffffffff1681565b6000600247611cfe919061495d565b90506000600e60000160010160009054906101000a900473ffffffffffffffffffffffffffffffffffffffff1673ffffffffffffffffffffffffffffffffffffffff1682604051611d4e906143c0565b60006040518083038185875af1925050503d8060008114611d8b576040519150601f19603f3d011682016040523d82523d6000602084013e611d90565b606091505b5050905060006006600a47611da5919061495d565b611daf9190614aff565b90506000600e60040160010160009054906101000a900473ffffffffffffffffffffffffffffffffffffffff1673ffffffffffffffffffffffffffffffffffffffff1682604051611dff906143c0565b60006040518083038185875af1925050503d8060008114611e3c576040519150601f19603f3d011682016040523d82523d6000602084013e611e41565b606091505b5050905060004790506000600e60080160010160009054906101000a900473ffffffffffffffffffffffffffffffffffffffff1673ffffffffffffffffffffffffffffffffffffffff1682604051611e98906143c0565b60006040518083038185875af1925050503d8060008114611ed5576040519150601f19603f3d011682016040523d82523d6000602084013e611eda565b606091505b50509050848015611ee85750825b8015611ef15750805b15611f48577f7687ac21028b7c97759d5ce068f0a4c0b810aadf5d36b53a446f9d03b84238a1600e600001600e600401600e600801898887604051611f3b9695949392919061471e565b60405180910390a1611f79565b6040517e17843d00000000000000000000000000000000000000000000000000000000815260040160405180910390fd5b505050505050565b846005600082815260200190815260200160002060009054906101000a900473ffffffffffffffffffffffffffffffffffffffff1673ffffffffffffffffffffffffffffffffffffffff163373ffffffffffffffffffffffffffffffffffffffff1614612023576040517f08c379a000000000000000000000000000000000000000000000000000000000815260040161201a90614644565b60405180910390fd5b6005600082815260200190815260200160002060006101000a81549073ffffffffffffffffffffffffffffffffffffffff0219169055807f7cc135e0cebb02c3480ae5d74d377283180a2601f8f644edf7987b009316c63a60405160405180910390a2811561285357600d60008673ffffffffffffffffffffffffffffffffffffffff1673ffffffffffffffffffffffffffffffffffffffff168152602001908152602001600020600e60000160008201816000019080546120e490614cf7565b6120ef92919061387c565b506001820160009054906101000a900473ffffffffffffffffffffffffffffffffffffffff168160010160006101000a81548173ffffffffffffffffffffffffffffffffffffffff021916908373ffffffffffffffffffffffffffffffffffffffff1602179055506001820160149054906101000a900460ff168160010160146101000a81548160ff021916908360ff1602179055506001820160159054906101000a900460ff168160010160156101000a81548160ff021916908360ff1602179055506001820160169054906101000a900460ff168160010160166101000a81548160ff021916908360ff1602179055506001820160179054906101000a900460ff168160010160176101000a81548160ff021916908360ff1602179055506001820160189054906101000a900460ff168160010160186101000a81548160ff021916908360ff160217905550600282018160020190805461225190614cf7565b61225c92919061387c565b506003820160009054906101000a900460ff168160030160006101000a81548160ff021916908360ff160217905550905050600d60008573ffffffffffffffffffffffffffffffffffffffff1673ffffffffffffffffffffffffffffffffffffffff168152602001908152602001600020600e60040160008201816000019080546122e690614cf7565b6122f192919061387c565b506001820160009054906101000a900473ffffffffffffffffffffffffffffffffffffffff168160010160006101000a81548173ffffffffffffffffffffffffffffffffffffffff021916908373ffffffffffffffffffffffffffffffffffffffff1602179055506001820160149054906101000a900460ff168160010160146101000a81548160ff021916908360ff1602179055506001820160159054906101000a900460ff168160010160156101000a81548160ff021916908360ff1602179055506001820160169054906101000a900460ff168160010160166101000a81548160ff021916908360ff1602179055506001820160179054906101000a900460ff168160010160176101000a81548160ff021916908360ff1602179055506001820160189054906101000a900460ff168160010160186101000a81548160ff021916908360ff160217905550600282018160020190805461245390614cf7565b61245e92919061387c565b506003820160009054906101000a900460ff168160030160006101000a81548160ff021916908360ff160217905550905050600d60008473ffffffffffffffffffffffffffffffffffffffff1673ffffffffffffffffffffffffffffffffffffffff168152602001908152602001600020600e60080160008201816000019080546124e890614cf7565b6124f392919061387c565b506001820160009054906101000a900473ffffffffffffffffffffffffffffffffffffffff168160010160006101000a81548173ffffffffffffffffffffffffffffffffffffffff021916908373ffffffffffffffffffffffffffffffffffffffff1602179055506001820160149054906101000a900460ff168160010160146101000a81548160ff021916908360ff1602179055506001820160159054906101000a900460ff168160010160156101000a81548160ff021916908360ff1602179055506001820160169054906101000a900460ff168160010160166101000a81548160ff021916908360ff1602179055506001820160179054906101000a900460ff168160010160176101000a81548160ff021916908360ff1602179055506001820160189054906101000a900460ff168160010160186101000a81548160ff021916908360ff160217905550600282018160020190805461265590614cf7565b61266092919061387c565b506003820160009054906101000a900460ff168160030160006101000a81548160ff021916908360ff16021790555090505084600860006101000a81548173ffffffffffffffffffffffffffffffffffffffff021916908373ffffffffffffffffffffffffffffffffffffffff16021790555083600960006101000a81548173ffffffffffffffffffffffffffffffffffffffff021916908373ffffffffffffffffffffffffffffffffffffffff16021790555082600a60006101000a81548173ffffffffffffffffffffffffffffffffffffffff021916908373ffffffffffffffffffffffffffffffffffffffff1602179055507f2b5b8b5c844aafb2894a07aa6006f4da6be20a66353a4cf221f21cfc9fc7dcf1600d60008773ffffffffffffffffffffffffffffffffffffffff1673ffffffffffffffffffffffffffffffffffffffff168152602001908152602001600020600d60008773ffffffffffffffffffffffffffffffffffffffff1673ffffffffffffffffffffffffffffffffffffffff168152602001908152602001600020600d60008773ffffffffffffffffffffffffffffffffffffffff1673ffffffffffffffffffffffffffffffffffffffff168152602001908152602001600020604051612842939291906146d2565b60405180910390a1612852611cef565b5b505050505050565b7f000000000000000000000000000000000000000000000000000000000000000081565b600d6020528060005260406000206000915090508060000180546128a290614cf7565b80601f01602080910402602001604051908101604052809291908181526020018280546128ce90614cf7565b801561291b5780601f106128f05761010080835404028352916020019161291b565b820191906000526020600020905b8154815290600101906020018083116128fe57829003601f168201915b5050505050908060010160009054906101000a900473ffffffffffffffffffffffffffffffffffffffff16908060010160149054906101000a900460ff16908060010160159054906101000a900460ff16908060010160169054906101000a900460ff16908060010160179054906101000a900460ff16908060010160189054906101000a900460ff16908060020180546129b590614cf7565b80601f01602080910402602001604051908101604052809291908181526020018280546129e190614cf7565b8015612a2e5780601f10612a0357610100808354040283529160200191612a2e565b820191906000526020600020905b815481529060010190602001808311612a1157829003601f168201915b5050505050908060030160009054906101000a900460ff16905089565b7f000000000000000000000000000000000000000000000000000000000000000081565b6060600c805480602002602001604051908101604052809291908181526020016000905b82821015612cee578382906000526020600020906004020160405180610120016040529081600082018054612ac790614cf7565b80601f0160208091040260200160405190810160405280929190818152602001828054612af390614cf7565b8015612b405780601f10612b1557610100808354040283529160200191612b40565b820191906000526020600020905b815481529060010190602001808311612b2357829003601f168201915b505050505081526020016001820160009054906101000a900473ffffffffffffffffffffffffffffffffffffffff1673ffffffffffffffffffffffffffffffffffffffff1673ffffffffffffffffffffffffffffffffffffffff1681526020016001820160149054906101000a900460ff1660ff1660ff1681526020016001820160159054906101000a900460ff1660ff1660ff1681526020016001820160169054906101000a900460ff1660ff1660ff1681526020016001820160179054906101000a900460ff1660ff1660ff1681526020016001820160189054906101000a900460ff1660ff1660ff168152602001600282018054612c4090614cf7565b80601f0160208091040260200160405190810160405280929190818152602001828054612c6c90614cf7565b8015612cb95780601f10612c8e57610100808354040283529160200191612cb9565b820191906000526020600020905b815481529060010190602001808311612c9c57829003601f168201915b505050505081526020016003820160009054906101000a900460ff1660ff1660ff168152505081526020019060010190612a93565b50505050905090565b600b8181548110612d0757600080fd5b906000526020600020016000915054906101000a900473ffffffffffffffffffffffffffffffffffffffff1681565b612d3e613909565b612d46613909565b612d5d858585846130a2909392919063ffffffff16565b9150509392505050565b606060006002836002612d7a9190614aff565b612d8491906148cd565b67ffffffffffffffff811115612d9d57612d9c614f2b565b5b6040519080825280601f01601f191660200182016040528015612dcf5781602001600182028036833780820191505090505b5090507f300000000000000000000000000000000000000000000000000000000000000081600081518110612e0757612e06614efc565b5b60200101907effffffffffffffffffffffffffffffffffffffffffffffffffffffffffffff1916908160001a9053507f780000000000000000000000000000000000000000000000000000000000000081600181518110612e6b57612e6a614efc565b5b60200101907effffffffffffffffffffffffffffffffffffffffffffffffffffffffffffff1916908160001a90535060006001846002612eab9190614aff565b612eb591906148cd565b90505b6001811115612f55577f3031323334353637383961626364656600000000000000000000000000000000600f861660108110612ef757612ef6614efc565b5b1a60f81b828281518110612f0e57612f0d614efc565b5b60200101907effffffffffffffffffffffffffffffffffffffffffffffffffffffffffffff1916908160001a905350600485901c945080612f4e90614ccd565b9050612eb8565b5060008414612f99576040517f08c379a0000000000000000000000000000000000000000000000000000000008152600401612f90906145e4565b60405180910390fd5b8091505092915050565b612fba82846080015161315290919063ffffffff16565b612fd181846080015161315290919063ffffffff16565b505050565b6000806004549050600181612feb91906148cd565b6004819055506000634042994660e01b60008087600001513089604001518760018c608001516000015160405160240161302c989796959493929190614449565b604051602081830303815290604052907bffffffffffffffffffffffffffffffffffffffffffffffffffffffff19166020820180517bffffffffffffffffffffffffffffffffffffffffffffffffffffffff8381831617835250505050905061309786838684613177565b925050509392505050565b6130aa613909565b6130ba856080015161010061331b565b508385600001818152505082856020019073ffffffffffffffffffffffffffffffffffffffff16908173ffffffffffffffffffffffffffffffffffffffff16815250508185604001907bffffffffffffffffffffffffffffffffffffffffffffffffffffffff191690817bffffffffffffffffffffffffffffffffffffffffffffffffffffffff191681525050849050949350505050565b61315f8260038351613385565b613172818361350a90919063ffffffff16565b505050565b6000308460405160200161318c92919061437d565b604051602081830303815290604052805190602001209050846005600083815260200190815260200160002060006101000a81548173ffffffffffffffffffffffffffffffffffffffff021916908373ffffffffffffffffffffffffffffffffffffffff160217905550807fb5e6e01e79f91267dc17b4e6314d5d4d03593d2ceee0fbb452b750bd70ea5af960405160405180910390a2600260009054906101000a900473ffffffffffffffffffffffffffffffffffffffff1673ffffffffffffffffffffffffffffffffffffffff16634000aea08685856040518463ffffffff1660e01b8152600401613282939291906144ce565b602060405180830381600087803b15801561329c57600080fd5b505af11580156132b0573d6000803e3d6000fd5b505050506040513d601f19601f820116820180604052508101906132d49190613bf5565b613313576040517f08c379a000000000000000000000000000000000000000000000000000000000815260040161330a90614604565b60405180910390fd5b949350505050565b613323613976565b60006020836133329190614e3e565b1461335e576020826133449190614e3e565b60206133509190614b59565b8261335b91906148cd565b91505b81836020018181525050604051808452600081528281016020016040525082905092915050565b60178167ffffffffffffffff16116133bc576133b68160058460ff16901b60ff16178461352c90919063ffffffff16565b50613505565b60ff8167ffffffffffffffff1611613412576133eb601860058460ff16901b178461352c90919063ffffffff16565b5061340c8167ffffffffffffffff1660018561354c9092919063ffffffff16565b50613504565b61ffff8167ffffffffffffffff161161346957613442601960058460ff16901b178461352c90919063ffffffff16565b506134638167ffffffffffffffff1660028561354c9092919063ffffffff16565b50613503565b63ffffffff8167ffffffffffffffff16116134c25761349b601a60058460ff16901b178461352c90919063ffffffff16565b506134bc8167ffffffffffffffff1660048561354c9092919063ffffffff16565b50613502565b6134df601b60058460ff16901b178461352c90919063ffffffff16565b506135008167ffffffffffffffff1660088561354c9092919063ffffffff16565b505b5b5b5b505050565b613512613976565b6135248384600001515184855161356e565b905092915050565b613534613976565b613544838460000151518461365d565b905092915050565b613554613976565b6135658485600001515185856136b4565b90509392505050565b613576613976565b825182111561358457600080fd5b8460200151828561359591906148cd565b11156135ca576135c98560026135ba886020015188876135b591906148cd565b613742565b6135c49190614aff565b61375e565b5b6000808651805187602083010193508088870111156135e95787860182525b60208701925050505b60208410613630578051825260208261360b91906148cd565b915060208161361a91906148cd565b90506020846136299190614b59565b93506135f2565b60006001856020036101000a03905080198251168184511681811785525050508692505050949350505050565b613665613976565b8360200151831061368b5761368a84600286602001516136859190614aff565b61375e565b5b83518051602085830101848153818614156136a7576001820183525b5050508390509392505050565b6136bc613976565b846020015184836136cd91906148cd565b11156136f5576136f485600286856136e591906148cd565b6136ef9190614aff565b61375e565b5b600060018361010061370791906149e1565b6137119190614b59565b905085518386820101858319825116178152815185880111156137345784870182525b505085915050949350505050565b60008183111561375457829050613758565b8190505b92915050565b600082600001519050613771838361331b565b5061377c838261350a565b50505050565b82805461378e90614cf7565b90600052602060002090601f0160209004810192826137b057600085556137f7565b82601f106137c957805160ff19168380011785556137f7565b828001600101855582156137f7579182015b828111156137f65782518255916020019190600101906137db565b5b5090506138049190613990565b5090565b60405180610120016040528060608152602001600073ffffffffffffffffffffffffffffffffffffffff168152602001600060ff168152602001600060ff168152602001600060ff168152602001600060ff168152602001600060ff16815260200160608152602001600060ff1681525090565b82805461388890614cf7565b90600052602060002090601f0160209004810192826138aa57600085556138f8565b82601f106138bb57805485556138f8565b828001600101855582156138f857600052602060002091601f016020900482015b828111156138f75782548255916001019190600101906138dc565b5b5090506139059190613990565b5090565b6040518060a0016040528060008019168152602001600073ffffffffffffffffffffffffffffffffffffffff16815260200160007bffffffffffffffffffffffffffffffffffffffffffffffffffffffff1916815260200160008152602001613970613976565b81525090565b604051806040016040528060608152602001600081525090565b5b808211156139a9576000816000905550600101613991565b5090565b60006139c06139bb846147ef565b6147ca565b9050828152602081018484840111156139dc576139db614f69565b5b6139e7848285614c8b565b509392505050565b6000813590506139fe816150e4565b92915050565b600081359050613a13816150fb565b92915050565b600081519050613a28816150fb565b92915050565b600081359050613a3d81615112565b92915050565b600082601f830112613a5857613a57614f5a565b5b8135613a688482602086016139ad565b91505092915050565b60006101208284031215613a8857613a87614f5f565b5b613a936101206147ca565b9050600082013567ffffffffffffffff811115613ab357613ab2614f64565b5b613abf84828501613a43565b6000830152506020613ad3848285016139ef565b6020830152506040613ae784828501613bb3565b6040830152506060613afb84828501613bb3565b6060830152506080613b0f84828501613bb3565b60808301525060a0613b2384828501613bb3565b60a08301525060c0613b3784828501613bb3565b60c08301525060e082013567ffffffffffffffff811115613b5b57613b5a614f64565b5b613b6784828501613a43565b60e083015250610100613b7c84828501613bb3565b6101008301525092915050565b600081359050613b9881615129565b92915050565b600081519050613bad81615129565b92915050565b600081359050613bc281615140565b92915050565b600060208284031215613bde57613bdd614f73565b5b6000613bec848285016139ef565b91505092915050565b600060208284031215613c0b57613c0a614f73565b5b6000613c1984828501613a19565b91505092915050565b600080600080600060a08688031215613c3e57613c3d614f73565b5b6000613c4c88828901613a2e565b9550506020613c5d888289016139ef565b9450506040613c6e888289016139ef565b9350506060613c7f888289016139ef565b9250506080613c9088828901613a04565b9150509295509295909350565b600060208284031215613cb357613cb2614f73565b5b600082013567ffffffffffffffff811115613cd157613cd0614f6e565b5b613cdd84828501613a43565b91505092915050565b600060208284031215613cfc57613cfb614f73565b5b600082013567ffffffffffffffff811115613d1a57613d19614f6e565b5b613d2684828501613a71565b91505092915050565b600060208284031215613d4557613d44614f73565b5b6000613d5384828501613b89565b91505092915050565b600060208284031215613d7257613d71614f73565b5b6000613d8084828501613b9e565b91505092915050565b600060208284031215613d9f57613d9e614f73565b5b6000613dad84828501613bb3565b91505092915050565b6000613dc2838361409d565b905092915050565b613dd381614bba565b82525050565b613de281614bba565b82525050565b6000613df382614845565b613dfd8185614873565b935083602082028501613e0f85614820565b8060005b85811015613e4b5784840389528151613e2c8582613db6565b9450613e3783614866565b925060208a01995050600181019050613e13565b50829750879550505050505092915050565b613e6681614bd8565b82525050565b613e7581614be2565b82525050565b6000613e8682614850565b613e908185614884565b9350613ea0818560208601614c9a565b613ea981614f78565b840191505092915050565b613ec5613ec082614c55565b614e10565b82525050565b6000613ed68261485b565b613ee081856148a0565b9350613ef0818560208601614c9a565b613ef981614f78565b840191505092915050565b6000613f0f8261485b565b613f1981856148b1565b9350613f29818560208601614c9a565b613f3281614f78565b840191505092915050565b6000613f488261485b565b613f5281856148c2565b9350613f62818560208601614c9a565b80840191505092915050565b60008154613f7b81614cf7565b613f8581866148a0565b94506001821660008114613fa05760018114613fb257613fe5565b60ff1983168652602086019350613fe5565b613fbb85614830565b60005b83811015613fdd57815481890152600182019150602081019050613fbe565b808801955050505b50505092915050565b6000613ffb6020836148b1565b915061400682614ff1565b602082019050919050565b600061401e6023836148b1565b91506140298261501a565b604082019050919050565b60006140416012836148b1565b915061404c82615069565b602082019050919050565b6000614064600083614895565b915061406f82615092565b600082019050919050565b60006140876028836148b1565b915061409282615095565b604082019050919050565b60006101208301600083015184820360008601526140bb8282613ecb565b91505060208301516140d06020860182613dca565b5060408301516140e3604086018261435f565b5060608301516140f6606086018261435f565b506080830151614109608086018261435f565b5060a083015161411c60a086018261435f565b5060c083015161412f60c086018261435f565b5060e083015184820360e08601526141478282613ecb565b91505061010083015161415e61010086018261435f565b508091505092915050565b60006101208301600083015184820360008601526141878282613ecb565b915050602083015161419c6020860182613dca565b5060408301516141af604086018261435f565b5060608301516141c2606086018261435f565b5060808301516141d5608086018261435f565b5060a08301516141e860a086018261435f565b5060c08301516141fb60c086018261435f565b5060e083015184820360e08601526142138282613ecb565b91505061010083015161422a61010086018261435f565b508091505092915050565b60006101208301600080840185830360008701526142538382613f6e565b9250506001840154905061426681614d29565b6142736020870182613dca565b5061427d81614d5d565b61428a604087018261435f565b5061429481614d77565b6142a1606087018261435f565b506142ab81614d91565b6142b8608087018261435f565b506142c281614dab565b6142cf60a087018261435f565b506142d981614dc5565b6142e660c087018261435f565b506002840185830360e08701526142fd8382613f6e565b9250506003840154905061431081614d43565b61431e61010087018261435f565b50819250505092915050565b61433381614c2e565b82525050565b61434a61434582614c2e565b614e34565b82525050565b61435981614c38565b82525050565b61436881614c48565b82525050565b61437781614c48565b82525050565b60006143898285613eb4565b6014820191506143998284614339565b6020820191508190509392505050565b60006143b58284613f3d565b915081905092915050565b60006143cb82614057565b9150819050919050565b60006020820190506143ea6000830184613dd9565b92915050565b60006040820190506144056000830185613dd9565b81810360208301526144178184614169565b90509392505050565b60006040820190506144356000830185613dd9565b614442602083018461432a565b9392505050565b60006101008201905061445f600083018b613dd9565b61446c602083018a61432a565b6144796040830189613e5d565b6144866060830188613dd9565b6144936080830187613e6c565b6144a060a083018661432a565b6144ad60c083018561432a565b81810360e08301526144bf8184613e7b565b90509998505050505050505050565b60006060820190506144e36000830186613dd9565b6144f0602083018561432a565b81810360408301526145028184613e7b565b9050949350505050565b600060208201905081810360008301526145268184613de8565b905092915050565b60006020820190506145436000830184613e5d565b92915050565b6000610120820190508181036000830152614564818c613f04565b9050614573602083018b613dd9565b614580604083018a61436e565b61458d606083018961436e565b61459a608083018861436e565b6145a760a083018761436e565b6145b460c083018661436e565b81810360e08301526145c68185613f04565b90506145d661010083018461436e565b9a9950505050505050505050565b600060208201905081810360008301526145fd81613fee565b9050919050565b6000602082019050818103600083015261461d81614011565b9050919050565b6000602082019050818103600083015261463d81614034565b9050919050565b6000602082019050818103600083015261465d8161407a565b9050919050565b6000602082019050818103600083015261467e8184614169565b905092915050565b600060608201905081810360008301526146a08186614169565b905081810360208301526146b48185614169565b905081810360408301526146c88184614169565b9050949350505050565b600060608201905081810360008301526146ec8186614235565b905081810360208301526147008185614235565b905081810360408301526147148184614235565b9050949350505050565b600060c08201905081810360008301526147388189614235565b9050818103602083015261474c8188614235565b905081810360408301526147608187614235565b905061476f606083018661432a565b61477c608083018561432a565b61478960a083018461432a565b979650505050505050565b60006020820190506147a9600083018461432a565b92915050565b60006020820190506147c46000830184614350565b92915050565b60006147d46147e5565b90506147e08282614ddf565b919050565b6000604051905090565b600067ffffffffffffffff82111561480a57614809614f2b565b5b61481382614f78565b9050602081019050919050565b6000819050602082019050919050565b60008190508160005260206000209050919050565b600081519050919050565b600081519050919050565b600081519050919050565b6000602082019050919050565b600082825260208201905092915050565b600082825260208201905092915050565b600081905092915050565b600082825260208201905092915050565b600082825260208201905092915050565b600081905092915050565b60006148d882614c2e565b91506148e383614c2e565b9250827fffffffffffffffffffffffffffffffffffffffffffffffffffffffffffffffff0382111561491857614917614e6f565b5b828201905092915050565b600061492e82614c38565b915061493983614c38565b92508263ffffffff0382111561495257614951614e6f565b5b828201905092915050565b600061496882614c2e565b915061497383614c2e565b92508261498357614982614e9e565b5b828204905092915050565b6000808291508390505b60018511156149d8578086048111156149b4576149b3614e6f565b5b60018516156149c35780820291505b80810290506149d185614fe4565b9450614998565b94509492505050565b60006149ec82614c2e565b91506149f783614c2e565b9250614a247fffffffffffffffffffffffffffffffffffffffffffffffffffffffffffffffff8484614a2c565b905092915050565b600082614a3c5760019050614af8565b81614a4a5760009050614af8565b8160018114614a605760028114614a6a57614a99565b6001915050614af8565b60ff841115614a7c57614a7b614e6f565b5b8360020a915084821115614a9357614a92614e6f565b5b50614af8565b5060208310610133831016604e8410600b8410161715614ace5782820a905083811115614ac957614ac8614e6f565b5b614af8565b614adb848484600161498e565b92509050818404811115614af257614af1614e6f565b5b81810290505b9392505050565b6000614b0a82614c2e565b9150614b1583614c2e565b9250817fffffffffffffffffffffffffffffffffffffffffffffffffffffffffffffffff0483118215151615614b4e57614b4d614e6f565b5b828202905092915050565b6000614b6482614c2e565b9150614b6f83614c2e565b925082821015614b8257614b81614e6f565b5b828203905092915050565b600073ffffffffffffffffffffffffffffffffffffffff82169050919050565b600060ff82169050919050565b6000614bc582614c0e565b9050919050565b60008115159050919050565b6000819050919050565b60007fffffffff0000000000000000000000000000000000000000000000000000000082169050919050565b600073ffffffffffffffffffffffffffffffffffffffff82169050919050565b6000819050919050565b600063ffffffff82169050919050565b600060ff82169050919050565b6000614c6082614c67565b9050919050565b6000614c7282614c79565b9050919050565b6000614c8482614c0e565b9050919050565b82818337600083830152505050565b60005b83811015614cb8578082015181840152602081019050614c9d565b83811115614cc7576000848401525b50505050565b6000614cd882614c2e565b91506000821415614cec57614ceb614e6f565b5b600182039050919050565b60006002820490506001821680614d0f57607f821691505b60208210811415614d2357614d22614ecd565b5b50919050565b6000614d3c614d3783614f96565b614b8d565b9050919050565b6000614d56614d5183614f96565b614bad565b9050919050565b6000614d70614d6b83614fa3565b614bad565b9050919050565b6000614d8a614d8583614fb0565b614bad565b9050919050565b6000614da4614d9f83614fbd565b614bad565b9050919050565b6000614dbe614db983614fca565b614bad565b9050919050565b6000614dd8614dd383614fd7565b614bad565b9050919050565b614de882614f78565b810181811067ffffffffffffffff82111715614e0757614e06614f2b565b5b80604052505050565b6000614e1b82614e22565b9050919050565b6000614e2d82614f89565b9050919050565b6000819050919050565b6000614e4982614c2e565b9150614e5483614c2e565b925082614e6457614e63614e9e565b5b828206905092915050565b7f4e487b7100000000000000000000000000000000000000000000000000000000600052601160045260246000fd5b7f4e487b7100000000000000000000000000000000000000000000000000000000600052601260045260246000fd5b7f4e487b7100000000000000000000000000000000000000000000000000000000600052602260045260246000fd5b7f4e487b7100000000000000000000000000000000000000000000000000000000600052603260045260246000fd5b7f4e487b7100000000000000000000000000000000000000000000000000000000600052604160045260246000fd5b600080fd5b600080fd5b600080fd5b600080fd5b600080fd5b600080fd5b6000601f19601f8301169050919050565b60008160601b9050919050565b60008160001c9050919050565b60008160a01c9050919050565b60008160a81c9050919050565b60008160b01c9050919050565b60008160b81c9050919050565b60008160c01c9050919050565b60008160011c9050919050565b7f537472696e67733a20686578206c656e67746820696e73756666696369656e74600082015250565b7f756e61626c6520746f207472616e73666572416e6443616c6c20746f206f726160008201527f636c650000000000000000000000000000000000000000000000000000000000602082015250565b7f556e61626c6520746f207472616e736665720000000000000000000000000000600082015250565b50565b7f536f75726365206d75737420626520746865206f7261636c65206f662074686560008201527f2072657175657374000000000000000000000000000000000000000000000000602082015250565b6150ed81614bba565b81146150f857600080fd5b50565b61510481614bcc565b811461510f57600080fd5b50565b61511b81614bd8565b811461512657600080fd5b50565b61513281614c2e565b811461513d57600080fd5b50565b61514981614c48565b811461515457600080fd5b5056fea26469706673582212202face00eb212fdb0742b439e30b1c0326b757d2710104bb34280673deda8c63c64736f6c63430008070033",
  "linkReferences": {},
  "deployedLinkReferences": {}
}